:100000000C942A000C9447000C9447000C94470071
:100010000C9447000C9447000C9447000C94470044
:100020000C9447000C9447000C9447000C94470034
:100030000C9447000C94A30B0C94760B0C94470083
:100040000C9447000C9447000C9447000C94470014
:100050000C94470011241FBECFE5D8E0DEBFCDBF12
:1000600010E0A0E6B0E0E8E7F4E202C005900D92EF
:10007000A63EB107D9F711E0A6EEB0E001C01D928F
:10008000A530B107E1F70E94F70E0C943A120C94D8
:100090000000EF92FF920F931F937B018C0120E0F1
:1000A00030E040E05FE40E94490388238CF0C801FF
:1000B000B70120E030E040E05FE40E94C1010E940F
:1000C000A9039B01AC01205030404040504806C07D
:1000D000C801B7010E94A9039B01AC01B901CA0183
:1000E0001F910F91FF90EF900895A0E0B0E0EBE733
:1000F000F0E00C940312DC012B01FA019C91923088
:1001000008F439C1EB018881823008F433C194309E
:1001100069F4843009F02FC111969C91119789815F
:10012000981709F428C1A0EDB0E025C1843009F486
:1001300021C18230A9F4923009F01DC19A01AD01AC
:1001400088E0EA010990AE01E90109929E0181501F
:10015000C1F7E201898111969C918923818308C1AD
:10016000923009F407C112962D903C901397EB0141
:100170008A819B811496AD90BD90CD90DC901797AD
:10018000EC80FD800E811F819101281B390BB90184
:1001900037FF04C066277727621B730B6032710537
:1001A0000CF061C0121613066CF537014801062EDB
:1001B00004C096948794779467940A94D2F721E0C8
:1001C00030E040E050E004C0220F331F441F551FB1
:1001D0006A95D2F721503040404050402E213F21B7
:1001E00040235123211531054105510521F021E01E
:1001F00030E040E050E079018A01E628F72808293C
:1002000019293CC0232BD1F1260E371E350146019A
:10021000062E04C096948794779467940A94D2F734
:1002200021E030E040E050E004C0220F331F441FC3
:10023000551F6A95D2F721503040404050402A2146
:100240003B214C215D21211531054105510521F04E
:1002500021E030E040E050E059016A01A628B728CB
:10026000C828D9280BC0821593052CF01C01AA249C
:10027000BB24650103C0EE24FF24870111969C91E5
:10028000D20111968C91981709F445C0992339F041
:10029000A80197012A193B094C095D0906C0A6016E
:1002A00095012E193F09400B510B57FD08C01182D3
:1002B0003382228224833583468357831DC081E0A5
:1002C00081833382228288279927DC01821B930B4A
:1002D000A40BB50B84839583A683B7830DC0220F2F
:1002E000331F441F551F24833583468357838281E0
:1002F000938101979383828324813581468157813D
:10030000DA01C9010197A109B1098F5F9F4FAF4F72
:10031000BF4328F30BC0918333822282EA0CFB1C7B
:100320000C1D1D1DE482F5820683178383E0808304
:10033000248135814681578157FF1AC0C901AA27F8
:1003400097FDA095BA2F81709070A070B0705695EF
:10035000479537952795822B932BA42BB52B848318
:100360009583A683B7838281938101969383828349
:10037000DF0101C0D201CD01CDB7DEB7E2E10C94BF
:100380001F12A0E2B0E0E7ECF1E00C940F126983D9
:100390007A838B839C832D833E834F835887E9E048
:1003A000EE2EF12CEC0EFD1ECE010196B7010E943F
:1003B000D2048E010F5E1F4FCE010596B8010E9438
:1003C000D2048A8991E089278A8BC701B801AE01DE
:1003D000475E5F4F0E9475000E94FD03A096E6E015
:1003E0000C942B12A0E2B0E0E8EFF1E00C940F12B5
:1003F00069837A838B839C832D833E834F835887C5
:10040000F9E0EF2EF12CEC0EFD1ECE010196B701A6
:100410000E94D2048E010F5E1F4FCE010596B801D7
:100420000E94D204C701B801AE01475E5F4F0E942F
:1004300075000E94FD03A096E6E00C942B12A0E24A
:10044000B0E0E5E2F2E00C94031269837A838B83D7
:100450009C832D833E834F835887CE010196BE0136
:10046000675F7F4F0E94D204CE010596BE016F5E8A
:100470007F4F0E94D2049985923088F0898982301A
:10048000C8F0943019F4823051F404C0843029F457
:10049000923081F480ED90E0C6C0923049F420E0C3
:1004A0009A858A89981321E02A87CE010996BBC0D4
:1004B000823049F420E09A858A89981321E02A8BBA
:1004C000CE014196B0C02D843E844F8458886D88FB
:1004D0007E888F88988CEE24FF248701AA24BB2471
:1004E000650140E050E060E070E0E0E0F0E0C10174
:1004F00081709070892BE9F0E60CF71C081D191D1E
:100500009A01AB012A0D3B1D4C1D5D1D80E090E062
:10051000A0E0B0E0E614F7040805190520F481E036
:1005200090E0A0E0B0E0BA01A901480F591F6A1F8E
:100530007B1FAA0CBB1CCC1CDD1C97FE08C081E0F5
:1005400090E0A0E0B0E0A82AB92ACA2ADB2A3196B6
:10055000E032F10549F0660C771C881C991C569412
:10056000479437942794C3CFFA85EA892B893C892D
:100570008B859C85280F391F2E5F3F4F17C0CA01FE
:1005800081709070892B61F016950795F794E79428
:1005900080E090E0A0E0B0E8E82AF92A0A2B1B2BC3
:1005A00076956795579547952F5F3F4F77FDE7CF36
:1005B0000CC0440F551F661F771F17FD4160EE0CDE
:1005C000FF1C001F111F21503040403090E05907A0
:1005D00090E0690790E4790760F32B8F3C8FDB0193
:1005E000CA018F779070A070B07080349105A1051A
:1005F000B10561F447FD0AC0E114F10401051105DC
:1006000029F0405C5F4F6F4F7F4F40781A8EFE1786
:1006100011F081E08A8F4D8F5E8F6F8F78A383E01A
:10062000898FCE0149960E94FD03A096E2E10C94C9
:100630001F12A8E1B0E0EFE1F3E00C940F12698320
:100640007A838B839C832D833E834F83588789E0F5
:10065000E82EF12CEC0EFD1ECE010196B7010E9492
:10066000D2048E010F5E1F4FCE010596B8010E9485
:10067000D2048985823040F08989823028F0C70110
:10068000B8010E944A0501C08FEF6896E6E00C941D
:100690002B12A8E1B0E0EFE4F3E00C940F126983B1
:1006A0007A838B839C832D833E834F83588789E095
:1006B000E82EF12CEC0EFD1ECE010196B7010E9432
:1006C000D2048E010F5E1F4FCE010596B8010E9425
:1006D000D2048985823040F08989823028F0C701B0
:1006E000B8010E944A0501C08FEF6896E6E00C94BD
:1006F0002B12A8E1B0E0EFE7F3E00C940F1269834E
:100700007A838B839C832D833E834F83588789E034
:10071000E82EF12CEC0EFD1ECE010196B7010E94D1
:10072000D2048E010F5E1F4FCE010596B8010E94C4
:10073000D2048985823040F08989823028F0C7014F
:10074000B8010E944A0501C081E06896E6E00C9479
:100750002B12ACE0B0E0EFEAF3E00C9413126983E3
:100760007A838B839C83CE010196BE016B5F7F4FA2
:100770000E94D2048D81823061F1823050F1843048
:1007800021F48E81882351F12EC02F81388537FDC9
:1007900020C06E812F3131051CF06623F9F023C093
:1007A0008EE190E0821B930B29853A854B855C8511
:1007B00004C056954795379527958A95D2F76623B5
:1007C000B1F050954095309521953F4F4F4F5F4F79
:1007D0000EC020E030E040E050E009C02FEF3FEFD6
:1007E0004FEF5FE704C020E030E040E050E8B9019F
:1007F000CA012C96E2E00C942F12DF92EF92FF9246
:100800000F931F93FC01E480F58006811781D1804E
:100810008081823048F480E090E0A0E1B0E0E82AF6
:10082000F92A0A2B1B2BA5C0843009F49FC0823003
:1008300021F4EE24FF24870105C0E114F104010531
:10084000110519F4E0E0F0E096C0628173819FEF3A
:10085000623879070CF05BC022E83FEF261B370BAC
:100860002A3131052CF020E030E040E050E02AC091
:10087000B801A701022E04C0769567955795479554
:100880000A94D2F781E090E0A0E0B0E004C0880FC5
:10089000991FAA1FBB1F2A95D2F70197A109B10979
:1008A0008E219F21A023B1230097A105B10521F03E
:1008B00081E090E0A0E0B0E09A01AB01282B392B59
:1008C0004A2B5B2BDA01C9018F779070A070B07052
:1008D00080349105A105B10539F427FF09C0205CDA
:1008E0003F4F4F4F5F4F04C0215C3F4F4F4F5F4F13
:1008F000E0E0F0E02030A0E03A07A0E04A07A0E402
:100900005A0710F0E1E0F0E079018A0127C0603871
:10091000710564F5FB01E158FF4FD801C7018F77DE
:100920009070A070B07080349105A105B10539F4C4
:10093000E7FE0DC080E490E0A0E0B0E004C08FE3EB
:1009400090E0A0E0B0E0E80EF91E0A1F1B1F17FFA1
:1009500005C016950795F794E794319687E01695AC
:100960000795F794E7948A95D1F705C0EE24FF2404
:100970008701EFEFF0E06E2F679566276795902F60
:100980009F77D794DD24D7948E2F8695492F462BB9
:10099000582F5D29B701CA011F910F91FF90EF9069
:1009A000DF900895FC01DB01408151812281622F9B
:1009B0006F7770E0221F2227221F9381892F880FD3
:1009C000822B282F30E0991F9927991F11969C930D
:1009D000119721153105A9F54115510561057105DD
:1009E00011F482E037C082E89FEF13969C938E93B8
:1009F00012979A01AB0167E0220F331F441F551F66
:100A00006A95D1F783E08C930DC0220F331F441FEA
:100A1000551F12968D919C911397019713969C9355
:100A20008E931297203080E0380780E0480780E4FA
:100A3000580758F314962D933D934D935C93179755
:100A400008952F3F310579F4411551056105710570
:100A500019F484E08C93089564FF03C081E08C93C3
:100A600012C01C9210C02F57304013963C932E9307
:100A7000129783E08C9387E0440F551F661F771F02
:100A80008A95D1F7706414964D935D936D937C9322
:100A9000179708951F93DC01FB019C91923008F495
:100AA00047C08081823008F443C0943051F41196DD
:100AB0001C91843099F58181682F70E0611B710968
:100AC0003FC0843021F0923031F48230B9F181811D
:100AD000882389F12DC011961C9111978230F1F075
:100AE00081811817D9F412962D913C911397828128
:100AF00093818217930794F028173907BCF0149656
:100B00008D919D910D90BC91A02D248135814681C0
:100B10005781281739074A075B0718F4112341F05A
:100B20000AC082179307A407B50740F4112319F0F0
:100B300061E070E005C06FEF7FEF02C060E070E041
:100B4000CB011F910895DF93CF9300D0CDB7DEB7CF
:100B50000E94D00B89838981813011F41A8202C0EE
:100B600081E08A830E94000E89838981813011F49B
:100B70001A8202C081E08A838A818823C1F510929B
:100B8000EA001092E9001092EE001092ED0010922F
:100B9000F5001092E8001092E7001092F200109217
:100BA000F1008FEF9FEF9093F4008093F300109289
:100BB000FB001092EC001092EB001092F8001092E3
:100BC000F7008FEF9FEF9093FA008093F900109257
:100BD000FC001092FD0084EA98E09093E40080937A
:100BE000E30086E998E09093E2008093E1008A8137
:100BF0000F900F90CF91DF910895DF93CF9300D0A6
:100C000000D00F92CDB7DEB79B838A837D836C8340
:100C10008091FC008823E9F48A819B819093EA000B
:100C20008093E9008C819D819093E8008093E70098
:100C30001092F2001092F1001092F5008FEF9FEFEA
:100C40009093F4008093F30081E08093FC0019827C
:100C500002C082E0898389810F900F900F900F90DE
:100C60000F90CF91DF910895DF93CF9300D000D004
:100C700000D0CDB7DEB71A828091FC00282F30E07B
:100C80003E832D838D819E81009709F4E6C02D81DE
:100C90003E812130310509F0E0C080910101282F0B
:100CA00030E03C832B838B819C818130910509F45A
:100CB00067C02B813C81223031052CF48B819C81D3
:100CC000009771F0CAC02B813C812230310509F4B4
:100CD000A3C08B819C818330910509F4B8C0BDC04D
:100CE0008091F1009091F200009701F58091E7006A
:100CF0009091E8000E945B0D8A838A81882361F4C9
:100D00008091F1009091F2009093F4008093F300B1
:100D10001092FC0084E089838091F1009091F200B0
:100D200001969093F2008093F10026C08091F1002B
:100D30009091F20081309105F9F48091E700909153
:100D4000E800892F99270E945B0D8A838A81882376
:100D500061F48091F1009091F2009093F4008093FF
:100D6000F3001092FC0084E089831092F20010924C
:100D7000F10081E08093010182E08093FC006DC06E
:100D80004091F5002091E9003091EA008091F10056
:100D90009091F200F901E80FF91F8081840F809390
:100DA000F5008091F1009091F20001969093F2008D
:100DB0008093F1002091F1003091F2008091E700E2
:100DC0009091E8002817390719F482E08093010117
:100DD0002091E9003091EA008091F1009091F200B9
:100DE0000197F901E80FF91F80810E945B0D8A834A
:100DF0008A81882369F48091F1009091F200019733
:100E00009093F4008093F3001092FC0084E08983B7
:100E100082E08093FC0021C08091F5000E945B0D70
:100E20008A838A81882361F48091F1009091F20095
:100E30009093F4008093F3001092FC0084E0898387
:100E400083E08093010182E08093FC0006C0109251
:100E5000010183E089831092FC00898126960FB6F8
:100E6000F894DEBF0FBECDBFCF91DF910895DF9321
:100E7000CF9300D000D00F92CDB7DEB79B838A838B
:100E80007D836C838091FD008823E9F48A819B81B6
:100E90009093EE008093ED008C819D819093EC0007
:100EA0008093EB001092F8001092F7001092FB0074
:100EB0008FEF9FEF9093FA008093F90081E0809389
:100EC000FD00198202C082E0898389810F900F9012
:100ED0000F900F900F90CF91DF910895DF93CF93F4
:100EE00000D000D00F92CDB7DEB78091FD00282F43
:100EF00030E03D832C838C819D81009709F4C3C031
:100F00002C813D812130310509F0BDC08091FF0069
:100F1000282F30E03B832A838A819B818130910591
:100F200009F457C02A813B812230310509F489C078
:100F30008A819B81009709F0A6C08091F70090916B
:100F4000F8008130910589F48091FE00882321F416
:100F50001092FD0086E0898380910001882F90E047
:100F6000909304018093030130C08091F700909129
:100F7000F8008230910549F58091FE00882321F424
:100F80001092FD0086E0898380910001882F90E017
:100F9000382F22278091030190910401822B932BFB
:100FA0009093040180930301E091EB00F091EC0039
:100FB0008091030190910401918380831092F80045
:100FC0001092F70081E08093FF0082E08093FD00A3
:100FD0005AC08091FE00882371F48091F7009091AF
:100FE000F80001979093FA008093F9001092FD00A9
:100FF00086E0898312C02091ED003091EE0080914F
:10100000F7009091F8000197F901E80FF91F90811E
:1010100080910201890F809302018091F7009091E5
:10102000F800E091EB00F091EC0020813181821713
:10103000930719F482E08093FF0082E08093FD0023
:1010400022C08091FE00882379F4E091EB00F091BA
:10105000EC008081918101979093FA008093F900D0
:101060001092FD0086E089839091FB00809102013F
:10107000981719F485E0898302C086E0898310926D
:10108000FF001092FC0089810F900F900F900F903D
:101090000F90CF91DF910895DF93CF93CDB7DEB757
:1010A0008091FD00CF91DF910895DF93CF9300D021
:1010B000CDB7DEB70E94350E89838981813011F466
:1010C0001A8202C081E08A831092EA001092E9003D
:1010D0001092EE001092ED001092F5001092E800D0
:1010E0001092E7001092F2001092F1008FEF9FEF44
:1010F0009093F4008093F3001092FB001092EC00A8
:101100001092EB001092F8001092F7008FEF9FEF13
:101110009093FA008093F9001092FC001092FD0069
:101120008A810F900F90CF91DF910895DF93CF9335
:10113000CDB7DEB78091FC00823019F481E0809356
:10114000FC00CF91DF910895DF93CF9300D0CDB70E
:10115000DEB78091FD008230E1F58091FF00282FFD
:1011600030E03A83298389819A818130910581F029
:1011700029813A8122303105D1F089819A81009705
:10118000E1F480E091E00E94250D8093FE0015C0FF
:101190002091ED003091EE008091F7009091F800E1
:1011A000820F931F0E94250D8093FE0006C08BEFD7
:1011B00090E00E94250D8093FE0081E08093FD0069
:1011C0008091F7009091F80001969093F800809339
:1011D000F7000F900F90CF91DF910895DF93CF9399
:1011E000CDB7DEB7A5E5B0E0E5E5F0E080818F7E24
:1011F0008C93A5E5B0E0E5E5F0E080818F7D8C93F0
:10120000A5E5B0E0E5E5F0E080818F7B8C93CF91A0
:10121000DF910895DF93CF93CDB7DEB7A5E5B0E0BA
:10122000E5E5F0E0808180688C93CF91DF910895AF
:10123000DF93CF93CDB7DEB7A5E5B0E0E5E5F0E00D
:1012400080818F778C93CF91DF910895DF93CF9337
:1012500000D0CDB7DEB789836A838A81813009F0F7
:101260006DC089818830A0F4ABE3B0E0EBE3F0E03F
:101270008081482F8981282F30E081E090E0022E84
:1012800002C0880F991F0A94E2F7842B8C93C8C080
:1012900089818830C8F089818031B0F4A8E3B0E05A
:1012A000E8E3F0E08081482F8981882F90E008975B
:1012B0009C0181E090E0022E02C0880F991F0A94E1
:1012C000E2F7842B8C93ACC089818031C8F089818E
:1012D0008831B0F4A5E3B0E0E5E3F0E08081482F89
:1012E0008981882F90E040979C0181E090E0022E58
:1012F00002C0880F991F0A94E2F7842B8C9390C048
:101300008981883108F48CC08981803208F088C0D6
:10131000A2E3B0E0E2E3F0E08081482F8981882FEA
:1013200090E048979C0181E090E0022E02C0880F77
:10133000991F0A94E2F7842B8C9372C08A818823C8
:1013400009F06EC089818830A8F4ABE3B0E0EBE32C
:10135000F0E08081482F8981282F30E081E090E003
:10136000022E02C0880F991F0A94E2F78095842309
:101370008C9356C089818830D0F089818031B8F44F
:10138000A8E3B0E0E8E3F0E08081482F8981882F6E
:1013900090E008979C0181E090E0022E02C0880F47
:1013A000991F0A94E2F7809584238C9339C0898130
:1013B0008031D0F089818831B8F4A5E3B0E0E5E36D
:1013C000F0E08081482F8981882F90E040979C0130
:1013D00081E090E0022E02C0880F991F0A94E2F784
:1013E000809584238C931CC089818831C8F08981C1
:1013F0008032B0F4A2E3B0E0E2E3F0E08081482F75
:101400008981882F90E048979C0181E090E0022E2E
:1014100002C0880F991F0A94E2F7809584238C9369
:101420000F900F90CF91DF910895DF93CF9300D06D
:10143000CDB7DEB789838981883098F4E9E3F0E09D
:101440008081282F30E08981882F90E0A90102C097
:10145000559547958A95E2F7CA01582F51705A83DE
:1014600050C089818830B8F089818031A0F4E6E3EA
:10147000F0E08081282F30E08981882F90E0089764
:10148000A90102C0559547958A95E2F7CA01582FE0
:1014900051705A8336C089818031B8F08981883192
:1014A000A0F4E3E3F0E08081282F30E08981882FE9
:1014B00090E04097A90102C0559547958A95E2F7BB
:1014C000CA01582F51705A831CC089818831B8F0E5
:1014D00089818032A0F4E0E3F0E08081282F30E0C1
:1014E0008981882F90E04897A90102C055954795BA
:1014F0008A95E2F7CA01582F51705A8302C088E0DA
:101500008A838A810F900F90CF91DF910895DF93A6
:10151000CF9300D0CDB7DEB789836A838A818823D1
:1015200009F071C089818830A8F4AAE3B0E0EAE349
:10153000F0E08081482F8981282F30E081E090E021
:10154000022E02C0880F991F0A94E2F78095842327
:101550008C93C7C089818830D0F089818031B8F4FC
:10156000A7E3B0E0E7E3F0E08081482F8981882F8E
:1015700090E008979C0181E090E0022E02C0880F65
:10158000991F0A94E2F7809584238C93AAC08981DD
:101590008031D0F089818831B8F4A4E3B0E0E4E38D
:1015A000F0E08081482F8981882F90E040979C014E
:1015B00081E090E0022E02C0880F991F0A94E2F7A2
:1015C000809584238C938DC08981883108F489C0EB
:1015D0008981803208F085C0A1E3B0E0E1E3F0E06A
:1015E0008081482F8981882F90E048979C0181E075
:1015F00090E0022E02C0880F991F0A94E2F78095AE
:1016000084238C936EC08A81813009F06AC08981FD
:101610008830A0F4AAE3B0E0EAE3F0E08081482F4C
:101620008981282F30E081E090E0022E02C0880FEF
:10163000991F0A94E2F7842B8C9353C089818830D8
:10164000C8F089818031B0F4A7E3B0E0E7E3F0E0CF
:101650008081482F8981882F90E008979C0181E044
:1016600090E0022E02C0880F991F0A94E2F7842BA3
:101670008C9337C089818031C8F089818831B0F47A
:10168000A4E3B0E0E4E3F0E08081482F8981882F73
:1016900090E040979C0181E090E0022E02C0880F0C
:1016A000991F0A94E2F7842B8C931BC0898188319F
:1016B000C0F089818032A8F4A1E3B0E0E1E3F0E07A
:1016C0008081482F8981882F90E048979C0181E094
:1016D00090E0022E02C0880F991F0A94E2F7842B33
:1016E0008C930F900F90CF91DF9108951F920F92DE
:1016F0000FB60F9211242F933F934F935F936F93E5
:101700007F938F939F93AF93BF93EF93FF93DF9359
:10171000CF93CDB7DEB7E091E100F091E2000995FB
:10172000CF91DF91FF91EF91BF91AF919F918F91F9
:101730007F916F915F914F913F912F910F900FBECD
:101740000F901F9018951F920F920FB60F921124B1
:101750002F933F934F935F936F937F938F939F93B9
:10176000AF93BF93EF93FF93DF93CF93CDB7DEB7E4
:10177000E091E300F091E4000995CF91DF91FF91B2
:10178000EF91BF91AF919F918F917F916F915F91F9
:101790004F913F912F910F900FBE0F901F90189572
:1017A000DF93CF9300D000D00F92CDB7DEB7198270
:1017B0008091E000813009F5ABE2B0E0EBE2F0E0CF
:1017C000808182608C93E9E2F0E08091D800909172
:1017D000D9008083A0E4B0E0E0E4F0E080818F777E
:1017E0008C93E0E4F0E08091D8009091D900892FAB
:1017F0009927808381E0898316C08091E000882347
:1018000089F4ABE2B0E0EBE2F0E080818D7F8C9375
:10181000E9E2F0E08091D8009091D900808381E0E6
:10182000898301C019828091DA00282F30E03D833E
:101830002C838C819D8181309105D9F02C813D8153
:101840002230310569F08C819D810097D1F4A0E4AC
:10185000B0E0E0E4F0E080818F7480688C9312C087
:10186000A0E4B0E0E0E4F0E080818F74806A8C93C3
:1018700009C0A0E4B0E0E0E4F0E08081806B8C93EC
:1018800001C019828091DB00882349F4A0E4B0E014
:10189000E0E4F0E08081877780688C930DC08091D0
:1018A000DB00813041F4A0E4B0E0E0E4F0E08081CE
:1018B00088688C9301C019828091DC00282F30E069
:1018C0003B832A838A819B8182309105D9F12A81C9
:1018D0003B812330310554F48A819B81009791F03C
:1018E0002A813B8121303105E9F05AC08A819B81F0
:1018F00083309105B9F12A813B812430310509F407
:1019000040C04EC0A0E4B0E0E0E4F0E08081897720
:1019100080688C93AAE2B0E0EAE2F0E080818B7FFD
:101920008C933FC0A0E4B0E0E0E4F0E080818977F0
:1019300082688C93AAE2B0E0EAE2F0E080818B7FDB
:101940008C932FC0A0E4B0E0E0E4F0E080818977E0
:1019500084688C93AAE2B0E0EAE2F0E080818B7FB9
:101960008C931FC0A0E4B0E0E0E4F0E080818668E2
:101970008C93AAE2B0E0EAE2F0E080818B7F8C9366
:1019800010C0A0E4B0E0E0E4F0E0808186688C93D1
:10199000AAE2B0E0EAE2F0E0808184608C9301C0CA
:1019A00019828091DD00882341F0AAE2B0E0EAE2EA
:1019B000F0E080818F7D8C930DC08091DD008823C5
:1019C00041F4AAE2B0E0EAE2F0E0808180628C9328
:1019D00001C019828091DE00882341F0AAE2B0E0C4
:1019E000EAE2F0E080818F7B8C930DC08091DE0075
:1019F000882341F4AAE2B0E0EAE2F0E0808180646A
:101A00008C9301C019828091DF00882341F0AAE203
:101A1000B0E0EAE2F0E080818F778C930DC0809196
:101A2000DF00882341F4AAE2B0E0EAE2F0E080813E
:101A300080688C9301C0198289810F900F900F905C
:101A40000F900F90CF91DF910895DF93CF9300D047
:101A500000D00F92CDB7DEB79D838C83EAE2F0E031
:101A6000808188232CF0EBE2F0E080818823DCF792
:101A7000EBE2F0E08081882F90E08C71907000970D
:101A800049F0ECE2F0E08081882F90E09B838A832C
:101A9000198208C0ECE2F0E08081EC81FD81808356
:101AA00081E0898389810F900F900F900F900F90A4
:101AB000CF91DF910895DF93CF9300D0CDB7DEB7FC
:101AC0008A83EAE2F0E08081829586958770882F8C
:101AD00090E081709070009761F4EBE2F0E080811B
:101AE000829586958770882F90E08170907000971E
:101AF000A1F3EAE2F0E08081869586958695882FAD
:101B000090E081709070882339F0ECE2F0E08A81F7
:101B1000808381E0898301C0198289810F900F90B1
:101B2000CF91DF910895DF93CF9300D000D00F9233
:101B3000CDB7DEB79C838B83198213C08981282F90
:101B400030E08B819C81820F931F0E94250D8A8338
:101B50008A81882319F48A818D8313C089818F5FDC
:101B600089838981882F90E09C01215030408B81AE
:101B70009C81FC01E20FF31F80818823F9F68A81A2
:101B80008D838D810F900F900F900F900F90CF91BC
:101B9000DF910895DF93CF9300D000D00F92CDB79F
:101BA000DEB79C838B83198215C08981282F30E092
:101BB0008B819C81FC01E20FF31F80810E945B0DF1
:101BC0008A838A81882319F48A818D8310C0898150
:101BD0008F5F89838981282F30E08B819C81FC0174
:101BE000E20FF31F8081882301F78A818D838D8125
:101BF0000F900F900F900F900F90CF91DF9108955D
:101C0000DF93CF930F92CDB7DEB7AAE2B0E0EAE25E
:101C1000F0E0808188608C93AAE2B0E0EAE2F0E034
:101C2000808180618C93EAE2F0E0808186958695E0
:101C30008695882F90E081709070882381F0EAE289
:101C4000F0E0808182958F70882F90E08170907095
:101C5000882319F081E0898303C0198201C01982A9
:101C600089810F90CF91DF910895DF93CF930F92E9
:101C7000CDB7DEB7EBE2F0E0808182958695877084
:101C8000882F90E0817090700097A1F3AAE2B0E0F5
:101C9000EAE2F0E08081877F8C93AAE2B0E0EAE29A
:101CA000F0E080818F7E8C93AAE2B0E0EAE2F0E07F
:101CB00080818F7D8C93AAE2B0E0EAE2F0E080813F
:101CC0008F7B8C93AAE2B0E0EAE2F0E080818F772C
:101CD0008C93EAE2F0E08081869586958695882F40
:101CE00090E081709070009781F4EAE2F0E08081EA
:101CF00082958F70882F90E081709070009719F412
:101D000081E0898303C0198201C0198289810F9003
:101D1000CF91DF910895DF93CF930F92CDB7DEB7C8
:101D200019828091DD00882341F0AAE2B0E0EAE266
:101D3000F0E080818F7D8C930DC08091DD00882341
:101D400041F4AAE2B0E0EAE2F0E0808180628C93A4
:101D500001C0198289810F90CF91DF910895DF939F
:101D6000CF930F92CDB7DEB719828091DF00882321
:101D700041F0AAE2B0E0EAE2F0E080818F778C9354
:101D80000DC08091DF00882341F4AAE2B0E0EAE2CE
:101D9000F0E0808180688C9301C0198289810F9066
:101DA000CF91DF910895DF93CF930F92CDB7DEB738
:101DB00019828091DE00882341F0AAE2B0E0EAE2D5
:101DC000F0E080818F7B8C930DC08091DE008823B2
:101DD00041F4AAE2B0E0EAE2F0E0808180648C9312
:101DE00001C0198289810F90CF91DF910895DF930F
:101DF000CF93CDB7DEB7CB51D1400FB6F894DEBF4D
:101E00000FBECDBF9E01215C3F4FC95EDE4F3983BF
:101E10002883C751D14080E690E0C75EDE4F9983AA
:101E20008883C951D14090E7C55EDE4F9883CB517E
:101E3000D140C75EDE4FA881B981C951D1400C9015
:101E4000C75EDE4FE881F981C951D1403196C75E46
:101E5000DE4FF983E883C951D140C95EDE4FA881C6
:101E6000B981C751D1400C92C95EDE4FE881F9813A
:101E7000C751D1403196C95EDE4FF983E883C7511F
:101E8000D140C55EDE4FF881CB51D140F150C55EE7
:101E9000DE4FF883CB51D140C55EDE4F2881CB5158
:101EA000D140222331F680E790E09DAF8CAFCE0188
:101EB00081559F4F9BAF8AAFCE018F549F4F24E631
:101EC000FC01DF01322F1D923A95E9F70E94A3052C
:101ED000CE01CF962CAD3DADB9010E94FD05CE01DE
:101EE0008F549F4F2AAD3BADB9010E9437078CE05C
:101EF00061E00E94870A8DE061E00E94870A8EE01F
:101F000061E00E94870A8FE061E00E94870A0E94D8
:101F1000EE08AFE5B0E0EFE5F0E0808180688C93FB
:101F20000E9434068EAF0E946E078EAF8EAD853054
:101F300009F066C2AFE5B0E0EFE5F0E080818F77B1
:101F40008C9319AE52C289AD282F30E0CE018F5448
:101F50009F4FFC01E20FF31F8081A82FB0E0CB5E02
:101F6000DE4FB983A883C551D140CB5EDE4FE881F7
:101F7000F981C551D140E233F10509F4ABC0CB5E24
:101F8000DE4F28813981C551D1402333310554F4C6
:101F9000CB5EDE4F88819981C551D1408133910557
:101FA000B1F020C2CB5EDE4FA881B981C551D140CE
:101FB000A333B10509F411C1CB5EDE4FE881F9818D
:101FC000C551D140E433F10509F48AC10BC28CE05C
:101FD00061E00E9426098DE060E00E9426098EE003
:101FE00060E00E9426098FE060E00E94260980E000
:101FF00090E0A6E9B3E48DAB9EABAFABB8AF6DA9F3
:102000007EA98FA998AD20E030E04AEF54E40E9409
:102010001F02DC01CB0189AB9AABABABBCAB69A9AE
:102020007AA98BA99CA920E030E040E85FE30E94F8
:10203000790388232CF481E090E098AB8FA73FC010
:1020400069A97AA98BA99CA920E03FEF4FE757E443
:102050000E94190318164CF56DA97EA98FA998AD99
:1020600020E030E040E251E40E941F02DC01CB019D
:10207000BC01CD010E944900DC01CB0198AB8FA7C8
:102080000FC088EC90E09EA78DA78DA59EA5019717
:10209000F1F79EA78DA78FA598A9019798AB8FA759
:1020A0008FA598A9009769F79DC169A97AA98BA9FD
:1020B0009CA90E944900DC01CB0198AB8FA78FA59A
:1020C00098A99CA78BA78BA59CA50197F1F79CA726
:1020D0008BA788C18CE060E00E9426098DE061E05A
:1020E0000E9426098EE060E00E9426098FE060E0F1
:1020F0000E94260980E090E0A6E9B3E48FA398A7A8
:10210000A9A7BAA76FA178A589A59AA520E030E074
:102110004AEF54E40E941F02DC01CB018BA39CA375
:10212000ADA3BEA36BA17CA18DA19EA120E030E058
:1021300040E85FE30E94790388232CF481E090E07B
:102140009AA389A33FC06BA17CA18DA19EA120E091
:102150003FEF4FE757E40E94190318164CF56FA1A3
:1021600078A589A59AA520E030E040E251E40E94DC
:102170001F02DC01CB01BC01CD010E944900DC0142
:10218000CB019AA389A30FC088EC90E098A38F8F0E
:102190008F8D98A10197F1F798A38F8F89A19AA1AC
:1021A00001979AA389A389A19AA1009769F71AC1F7
:1021B0006BA17CA18DA19EA10E944900DC01CB01F5
:1021C0009AA389A389A19AA19E8F8D8F8D8D9E8DB3
:1021D0000197F1F79E8F8D8F05C18CE060E00E9422
:1021E00026098DE060E00E9426098EE061E00E94F1
:1021F00026098FE060E00E94260980E090E0A6E9D1
:10220000B3E4898F9A8FAB8FBC8F698D7A8D8B8D5C
:102210009C8D20E030E04AEF54E40E941F02DC0174
:10222000CB018D8B9E8BAF8BB88F6D897E898F890B
:10223000988D20E030E040E85FE30E947903882336
:102240002CF481E090E09C8B8B8B3FC06D897E8964
:102250008F89988D20E03FEF4FE757E40E941903E4
:1022600018164CF5698D7A8D8B8D9C8D20E030E0B1
:1022700040E251E40E941F02DC01CB01BC01CD0110
:102280000E944900DC01CB019C8B8B8B0FC088EC3A
:1022900090E09A8B898B89899A890197F1F79A8BBB
:1022A000898B8B899C8901979C8B8B8B8B899C89D3
:1022B000009769F797C06D897E898F89988D0E94F4
:1022C0004900DC01CB019C8B8B8B8B899C89988B83
:1022D0008F878F8598890197F1F7988B8F8782C0B8
:1022E0008CE060E00E9426098DE060E00E942609F3
:1022F0008EE060E00E9426098FE061E00E942609DE
:1023000080E090E0A6E9B3E48B879C87AD87BE8729
:102310006B857C858D859E8520E030E04AEF54E416
:102320000E941F02DC01CB018F839887A987BA879F
:102330006F81788589859A8520E030E040E85FE309
:102340000E94790388232CF481E090E09E838D83A2
:102350003FC06F81788589859A8520E03FEF4FE700
:1023600057E40E94190318164CF56B857C858D8502
:102370009E8520E030E040E251E40E941F02DC0133
:10238000CB01BC01CD010E944900DC01CB019E8341
:102390008D830FC088EC90E09C838B838B819C8124
:1023A0000197F1F79C838B838D819E8101979E839A
:1023B0008D838D819E81009769F714C06F81788528
:1023C00089859A850E944900DC01CB019E838D831B
:1023D0008D819E819A83898389819A810197F1F702
:1023E0009A83898389AD8F5F89AF89AD282F30E0CB
:1023F000EAADFBAD808191812817390708F4A3CDA0
:102400000E940A098DCD2F923F924F925F926F9258
:102410007F928F929F92AF92BF92CF92DF92EF9274
:10242000FF920F931F93CF93DF93CDB7DEB7CA1BF5
:10243000DB0B0FB6F894DEBF0FBECDBF09942A8820
:10244000398848885F846E847D848C849B84AA84C8
:10245000B984C884DF80EE80FD800C811B81AA8155
:10246000B981CE0FD11D0FB6F894DEBF0FBECDBF20
:08247000ED010895F894FFCF7F
:1024780041686D656420456C2D44616B686C7920FA
:10248800262048657368616D20486166657A207703
:10249800616E7420746F20736179207468616E6B4B
:1024A80020796F7520486F7373616D20666F722095
:1024B80068656C70696E672075732C20616E642086
:1024C8007468697320697320666F72207377697402
:1024D80063682063617365203A44203132333400E5
:1024E80000000000000000003300000003000100AD
:0624F800000000000000DE
:00000001FF
